{"abi":[{"type":"constructor","inputs":[{"name":"usdc","type":"address","internalType":"address"}],"stateMutability":"nonpayable"},{"type":"function","name":"USDC","inputs":[],"outputs":[{"name":"","type":"address","internalType":"contract IERC20"}],"stateMutability":"view"},{"type":"function","name":"acceptOwnership","inputs":[],"outputs":[],"stateMutability":"nonpayable"},{"type":"function","name":"accrued","inputs":[{"name":"id","type":"uint256","internalType":"uint256"}],"outputs":[{"name":"","type":"uint256","internalType":"uint256"}],"stateMutability":"view"},{"type":"function","name":"buffer","inputs":[],"outputs":[{"name":"","type":"uint256","internalType":"uint256"}],"stateMutability":"view"},{"type":"function","name":"bufferDays","inputs":[],"outputs":[{"name":"","type":"uint32","internalType":"uint32"}],"stateMutability":"view"},{"type":"function","name":"bufferTarget","inputs":[],"outputs":[{"name":"","type":"uint256","internalType":"uint256"}],"stateMutability":"view"},{"type":"function","name":"cancel","inputs":[{"name":"id","type":"uint256","internalType":"uint256"}],"outputs":[{"name":"refundable","type":"uint256","internalType":"uint256"}],"stateMutability":"nonpayable"},{"type":"function","name":"claim","inputs":[{"name":"id","type":"uint256","internalType":"uint256"}],"outputs":[{"name":"paid","type":"uint256","internalType":"uint256"}],"stateMutability":"nonpayable"},{"type":"function","name":"claimOnBehalf","inputs":[{"name":"id","type":"uint256","internalType":"uint256"}],"outputs":[{"name":"paid","type":"uint256","internalType":"uint256"}],"stateMutability":"nonpayable"},{"type":"function","name":"claimable","inputs":[{"name":"id","type":"uint256","internalType":"uint256"}],"outputs":[{"name":"","type":"uint256","internalType":"uint256"}],"stateMutability":"view"},{"type":"function","name":"createStream","inputs":[{"name":"payee","type":"address","internalType":"address"},{"name":"rate","type":"uint256","internalType":"uint256"},{"name":"start","type":"uint40","internalType":"uint40"},{"name":"end","type":"uint40","internalType":"uint40"}],"outputs":[{"name":"id","type":"uint256","internalType":"uint256"}],"stateMutability":"nonpayable"},{"type":"function","name":"emergencyWithdraw","inputs":[{"name":"token","type":"address","internalType":"address"},{"name":"to","type":"address","internalType":"address"},{"name":"amount","type":"uint256","internalType":"uint256"}],"outputs":[],"stateMutability":"nonpayable"},{"type":"function","name":"epsilonBps","inputs":[],"outputs":[{"name":"","type":"uint16","internalType":"uint16"}],"stateMutability":"view"},{"type":"function","name":"feeRecipient","inputs":[],"outputs":[{"name":"","type":"address","internalType":"address"}],"stateMutability":"view"},{"type":"function","name":"fund","inputs":[{"name":"id","type":"uint256","internalType":"uint256"},{"name":"amount","type":"uint256","internalType":"uint256"}],"outputs":[],"stateMutability":"nonpayable"},{"type":"function","name":"fundFor","inputs":[{"name":"id","type":"uint256","internalType":"uint256"},{"name":"payer","type":"address","internalType":"address"},{"name":"amount","type":"uint256","internalType":"uint256"}],"outputs":[],"stateMutability":"nonpayable"},{"type":"function","name":"lastRebalance","inputs":[],"outputs":[{"name":"","type":"uint40","internalType":"uint40"}],"stateMutability":"view"},{"type":"function","name":"minEpsilon","inputs":[],"outputs":[{"name":"","type":"uint256","internalType":"uint256"}],"stateMutability":"view"},{"type":"function","name":"nextId","inputs":[],"outputs":[{"name":"","type":"uint256","internalType":"uint256"}],"stateMutability":"view"},{"type":"function","name":"owner","inputs":[],"outputs":[{"name":"","type":"address","internalType":"address"}],"stateMutability":"view"},{"type":"function","name":"pause","inputs":[],"outputs":[],"stateMutability":"nonpayable"},{"type":"function","name":"paused","inputs":[],"outputs":[{"name":"","type":"bool","internalType":"bool"}],"stateMutability":"view"},{"type":"function","name":"pendingOwner","inputs":[],"outputs":[{"name":"","type":"address","internalType":"address"}],"stateMutability":"view"},{"type":"function","name":"perfFeeBps","inputs":[],"outputs":[{"name":"","type":"uint16","internalType":"uint16"}],"stateMutability":"view"},{"type":"function","name":"poke","inputs":[{"name":"id","type":"uint256","internalType":"uint256"}],"outputs":[{"name":"closedNow","type":"bool","internalType":"bool"}],"stateMutability":"nonpayable"},{"type":"function","name":"rebalance","inputs":[],"outputs":[{"name":"b","type":"uint256","internalType":"uint256"},{"name":"t","type":"uint256","internalType":"uint256"},{"name":"d","type":"int256","internalType":"int256"}],"stateMutability":"nonpayable"},{"type":"function","name":"rebalanceCooldown","inputs":[],"outputs":[{"name":"","type":"uint32","internalType":"uint32"}],"stateMutability":"view"},{"type":"function","name":"renounceOwnership","inputs":[],"outputs":[],"stateMutability":"nonpayable"},{"type":"function","name":"setPerfFeeBps","inputs":[{"name":"_perfFeeBps","type":"uint16","internalType":"uint16"}],"outputs":[],"stateMutability":"nonpayable"},{"type":"function","name":"setYieldConfig","inputs":[{"name":"_teller","type":"address","internalType":"address"},{"name":"_usyc","type":"address","internalType":"address"}],"outputs":[],"stateMutability":"nonpayable"},{"type":"function","name":"setYieldEnabled","inputs":[{"name":"_yieldEnabled","type":"bool","internalType":"bool"}],"outputs":[],"stateMutability":"nonpayable"},{"type":"function","name":"streams","inputs":[{"name":"","type":"uint256","internalType":"uint256"}],"outputs":[{"name":"payer","type":"address","internalType":"address"},{"name":"payee","type":"address","internalType":"address"},{"name":"start","type":"uint40","internalType":"uint40"},{"name":"end","type":"uint40","internalType":"uint40"},{"name":"rate","type":"uint256","internalType":"uint256"},{"name":"funded","type":"uint128","internalType":"uint128"},{"name":"claimed","type":"uint128","internalType":"uint128"},{"name":"canceled","type":"bool","internalType":"bool"},{"name":"closed","type":"bool","internalType":"bool"}],"stateMutability":"view"},{"type":"function","name":"teller","inputs":[],"outputs":[{"name":"","type":"address","internalType":"address"}],"stateMutability":"view"},{"type":"function","name":"totalRate","inputs":[],"outputs":[{"name":"","type":"uint256","internalType":"uint256"}],"stateMutability":"view"},{"type":"function","name":"transferOwnership","inputs":[{"name":"newOwner","type":"address","internalType":"address"}],"outputs":[],"stateMutability":"nonpayable"},{"type":"function","name":"unpause","inputs":[],"outputs":[],"stateMutability":"nonpayable"},{"type":"function","name":"usyc","inputs":[],"outputs":[{"name":"","type":"address","internalType":"address"}],"stateMutability":"view"},{"type":"function","name":"yieldDeposit","inputs":[{"name":"amount","type":"uint256","internalType":"uint256"}],"outputs":[{"name":"sharesOut","type":"uint256","internalType":"uint256"}],"stateMutability":"nonpayable"},{"type":"function","name":"yieldEnabled","inputs":[],"outputs":[{"name":"","type":"bool","internalType":"bool"}],"stateMutability":"view"},{"type":"function","name":"yieldRedeemAll","inputs":[],"outputs":[{"name":"assetsOut","type":"uint256","internalType":"uint256"},{"name":"sharesIn","type":"uint256","internalType":"uint256"}],"stateMutability":"nonpayable"},{"type":"event","name":"OwnershipTransferStarted","inputs":[{"name":"previousOwner","type":"address","indexed":true,"internalType":"address"},{"name":"newOwner","type":"address","indexed":true,"internalType":"address"}],"anonymous":false},{"type":"event","name":"OwnershipTransferred","inputs":[{"name":"previousOwner","type":"address","indexed":true,"internalType":"address"},{"name":"newOwner","type":"address","indexed":true,"internalType":"address"}],"anonymous":false},{"type":"event","name":"Paused","inputs":[{"name":"account","type":"address","indexed":false,"internalType":"address"}],"anonymous":false},{"type":"event","name":"PerfFeeSet","inputs":[{"name":"bps","type":"uint16","indexed":false,"internalType":"uint16"}],"anonymous":false},{"type":"event","name":"RebalanceComputed","inputs":[{"name":"buffer","type":"uint256","indexed":false,"internalType":"uint256"},{"name":"target","type":"uint256","indexed":false,"internalType":"uint256"},{"name":"delta","type":"int256","indexed":false,"internalType":"int256"}],"anonymous":false},{"type":"event","name":"RebalanceNoAction","inputs":[{"name":"buffer","type":"uint256","indexed":false,"internalType":"uint256"},{"name":"target","type":"uint256","indexed":false,"internalType":"uint256"},{"name":"delta","type":"int256","indexed":false,"internalType":"int256"},{"name":"reason","type":"string","indexed":false,"internalType":"string"}],"anonymous":false},{"type":"event","name":"StreamCanceled","inputs":[{"name":"id","type":"uint256","indexed":true,"internalType":"uint256"}],"anonymous":false},{"type":"event","name":"StreamClaimed","inputs":[{"name":"id","type":"uint256","indexed":true,"internalType":"uint256"},{"name":"payee","type":"address","indexed":true,"internalType":"address"},{"name":"amount","type":"uint256","indexed":false,"internalType":"uint256"}],"anonymous":false},{"type":"event","name":"StreamCreated","inputs":[{"name":"id","type":"uint256","indexed":true,"internalType":"uint256"},{"name":"payer","type":"address","indexed":true,"internalType":"address"},{"name":"payee","type":"address","indexed":true,"internalType":"address"},{"name":"rate","type":"uint256","indexed":false,"internalType":"uint256"},{"name":"start","type":"uint40","indexed":false,"internalType":"uint40"},{"name":"end","type":"uint40","indexed":false,"internalType":"uint40"}],"anonymous":false},{"type":"event","name":"StreamFinished","inputs":[{"name":"id","type":"uint256","indexed":true,"internalType":"uint256"}],"anonymous":false},{"type":"event","name":"StreamFunded","inputs":[{"name":"id","type":"uint256","indexed":true,"internalType":"uint256"},{"name":"from","type":"address","indexed":true,"internalType":"address"},{"name":"amount","type":"uint256","indexed":false,"internalType":"uint256"}],"anonymous":false},{"type":"event","name":"StreamRefunded","inputs":[{"name":"id","type":"uint256","indexed":true,"internalType":"uint256"},{"name":"payer","type":"address","indexed":true,"internalType":"address"},{"name":"amount","type":"uint256","indexed":false,"internalType":"uint256"}],"anonymous":false},{"type":"event","name":"StreamReopened","inputs":[{"name":"id","type":"uint256","indexed":true,"internalType":"uint256"}],"anonymous":false},{"type":"event","name":"Unpaused","inputs":[{"name":"account","type":"address","indexed":false,"internalType":"address"}],"anonymous":false},{"type":"event","name":"YieldConfigSet","inputs":[{"name":"teller","type":"address","indexed":false,"internalType":"address"},{"name":"usyc","type":"address","indexed":false,"internalType":"address"}],"anonymous":false},{"type":"event","name":"YieldDeposited","inputs":[{"name":"amount","type":"uint256","indexed":false,"internalType":"uint256"},{"name":"sharesOut","type":"uint256","indexed":false,"internalType":"uint256"}],"anonymous":false},{"type":"event","name":"YieldEnabledSet","inputs":[{"name":"enabled","type":"bool","indexed":false,"internalType":"bool"}],"anonymous":false},{"type":"event","name":"YieldRedeemed","inputs":[{"name":"sharesIn","type":"uint256","indexed":false,"internalType":"uint256"},{"name":"assetsOut","type":"uint256","indexed":false,"internalType":"uint256"}],"anonymous":false},{"type":"error","name":"EnforcedPause","inputs":[]},{"type":"error","name":"ExpectedPause","inputs":[]},{"type":"error","name":"OwnableInvalidOwner","inputs":[{"name":"owner","type":"address","internalType":"address"}]},{"type":"error","name":"OwnableUnauthorizedAccount","inputs":[{"name":"account","type":"address","internalType":"address"}]},{"type":"error","name":"ReentrancyGuardReentrantCall","inputs":[]},{"type":"error","name":"SafeERC20FailedOperation","inputs":[{"name":"token","type":"address","internalType":"address"}]},{"type":"error","name":"StreamVault__AlreadyCanceled","inputs":[]},{"type":"error","name":"StreamVault__AmountTooLarge","inputs":[]},{"type":"error","name":"StreamVault__AmountTooLow","inputs":[]},{"type":"error","name":"StreamVault__AmountZero","inputs":[]},{"type":"error","name":"StreamVault__BadFeeBps","inputs":[]},{"type":"error","name":"StreamVault__BadPayer","inputs":[]},{"type":"error","name":"StreamVault__Cancel_NotPayer","inputs":[]},{"type":"error","name":"StreamVault__DidNotIncrease","inputs":[]},{"type":"error","name":"StreamVault__Fund_NotPayer","inputs":[]},{"type":"error","name":"StreamVault__FundedBelowClaimed","inputs":[]},{"type":"error","name":"StreamVault__InsufficientLiquidity","inputs":[{"name":"needed","type":"uint256","internalType":"uint256"},{"name":"available","type":"uint256","internalType":"uint256"}]},{"type":"error","name":"StreamVault__InvalidAddress","inputs":[]},{"type":"error","name":"StreamVault__InvalidRate","inputs":[]},{"type":"error","name":"StreamVault__InvalidStream","inputs":[]},{"type":"error","name":"StreamVault__InvalidTime","inputs":[]},{"type":"error","name":"StreamVault__NotPayee","inputs":[]},{"type":"error","name":"StreamVault__NothingToClaim","inputs":[]},{"type":"error","name":"StreamVault__RebalanceCooldown","inputs":[]},{"type":"error","name":"StreamVault__YieldNotEnabled","inputs":[]}],"bytecode":{"object":"0x60a0604052600360055f6101000a81548163ffffffff021916908363ffffffff1602179055505f600560046101000a81548160ff0219169083151502179055506078600760196101000a81548163ffffffff021916908363ffffffff160217905550620f4240600855606460095f6101000a81548161ffff021916908361ffff16021790555034801562000091575f80fd5b50604051620044a4380380620044a48339818101604052810190620000b7919062000332565b336001620000da620000ce620001a060201b60201c565b620001c960201b60201c565b5f01819055505f73ffffffffffffffffffffffffffffffffffffffff168173ffffffffffffffffffffffffffffffffffffffff160362000153575f6040517f1e4fbdf70000000000000000000000000000000000000000000000000000000081526004016200014a919062000373565b60405180910390fd5b6200016481620001d260201b60201c565b508073ffffffffffffffffffffffffffffffffffffffff1660808173ffffffffffffffffffffffffffffffffffffffff1681525050506200038e565b5f7f9b779b17422d0df92223018b32b4d1fa46e071723d6817e2486d003becc55f005f1b905090565b5f819050919050565b60015f6101000a81549073ffffffffffffffffffffffffffffffffffffffff021916905562000207816200020a60201b60201c565b50565b5f8060019054906101000a900473ffffffffffffffffffffffffffffffffffffffff169050815f60016101000a81548173ffffffffffffffffffffffffffffffffffffffff021916908373ffffffffffffffffffffffffffffffffffffffff1602179055508173ffffffffffffffffffffffffffffffffffffffff168173ffffffffffffffffffffffffffffffffffffffff167f8be0079c531659141344cd1fd0a4f28419497f9722a3daafe3b4186f6b6457e060405160405180910390a35050565b5f80fd5b5f73ffffffffffffffffffffffffffffffffffffffff82169050919050565b5f620002fc82620002d1565b9050919050565b6200030e81620002f0565b811462000319575f80fd5b50565b5f815190506200032c8162000303565b92915050565b5f602082840312156200034a5762000349620002cd565b5b5f62000359848285016200031c565b91505092915050565b6200036d81620002f0565b82525050565b5f602082019050620003885f83018462000362565b92915050565b6080516140b7620003ed5f395f8181610d0a015281816117f601528181611ac701528181611eca0152818161219f015281816122dd0152818161265301528181612a5101528181612b7801528181612d97015261307e01526140b75ff3fe608060405234801561000f575f80fd5b5060043610610246575f3560e01c80638456cb5911610139578063d116ab51116100b6578063edaafe201161007a578063edaafe20146106a7578063ef3b3afc146106c5578063f2fde38b146106e1578063f52981f4146106fd578063fcb7d7321461072d57610246565b8063d116ab51146105ef578063d1d58b251461061f578063d28456221461064f578063e30c39781461066d578063e63ea4081461068b57610246565b8063b8e3383a116100fd578063b8e3383a14610559578063ba7596de14610577578063c166beb614610595578063c2752e43146105b3578063c2f7e23e146105d157610246565b80638456cb59146104d957806389a30271146104e35780638da5cb5b14610501578063a65e2cfd1461051f578063b3de272d1461053b57610246565b806346904840116101c757806370a3d0b31161018b57806370a3d0b314610459578063715018a61461048957806379ba5097146104935780637d7c2a1c1461049d578063830cb283146104bd57610246565b806346904840146103a957806357edab4e146103c75780635c975abb146103e557806361b8ce8c1461040357806364d60d911461042157610246565b8063330a649d1161020e578063330a649d146102f1578063379607f5146103215780633f4ba83a1461035157806340e58ee51461035b57806342a66f681461038b57610246565b8063083c43a51461024a578063106b9ca1146102695780631135e60414610287578063135986b4146102a557806332145f90146102c1575b5f80fd5b610252610749565b6040516102609291906136bd565b60405180910390f35b61027161077b565b60405161027e9190613703565b60405180910390f35b61028f610792565b60405161029c919061371c565b60405180910390f35b6102bf60048036038101906102ba919061376e565b6107cb565b005b6102db60048036038101906102d691906137c3565b610827565b6040516102e891906137fd565b60405180910390f35b61030b600480360381019061030691906137c3565b610919565b604051610318919061371c565b60405180910390f35b61033b600480360381019061033691906137c3565b61094a565b604051610348919061371c565b60405180910390f35b610359610a09565b005b610375600480360381019061037091906137c3565b610a1b565b604051610382919061371c565b60405180910390f35b610393610dfe565b6040516103a0919061371c565b60405180910390f35b6103b1610e04565b6040516103be9190613855565b60405180910390f35b6103cf610e29565b6040516103dc9190613855565b60405180910390f35b6103ed610e4d565b6040516103fa91906137fd565b60405180910390f35b61040b610e61565b604051610418919061371c565b60405180910390f35b61043b600480360381019061043691906137c3565b610e67565b60405161045099989796959493929190613898565b60405180910390f35b610473600480360381019061046e9190613977565b610f61565b604051610480919061371c565b60405180910390f35b610491611348565b005b61049b61135b565b005b6104a56113e9565b6040516104b4939291906139f3565b60405180910390f35b6104d760048036038101906104d29190613a5f565b611743565b005b6104e16117e2565b005b6104eb6117f4565b6040516104f89190613ae5565b60405180910390f35b610509611818565b6040516105169190613855565b60405180910390f35b61053960048036038101906105349190613afe565b611840565b005b6105436118fc565b6040516105509190613b5a565b60405180910390f35b610561611912565b60405161056e9190613b5a565b60405180910390f35b61057f611927565b60405161058c9190613b82565b60405180910390f35b61059d61193a565b6040516105aa9190613855565b60405180910390f35b6105bb61195f565b6040516105c891906137fd565b60405180910390f35b6105d9611972565b6040516105e69190613b82565b60405180910390f35b610609600480360381019061060491906137c3565b611986565b604051610616919061371c565b60405180910390f35b610639600480360381019061063491906137c3565b6119bd565b604051610646919061371c565b60405180910390f35b610657611a5e565b604051610664919061371c565b60405180910390f35b610675611a64565b6040516106829190613855565b60405180910390f35b6106a560048036038101906106a09190613b9b565b611a8c565b005b6106af611ac4565b6040516106bc919061371c565b60405180910390f35b6106df60048036038101906106da9190613beb565b611b62565b005b6106fb60048036038101906106f69190613c3b565b611c1f565b005b610717600480360381019061071291906137c3565b611ccb565b604051610724919061371c565b60405180910390f35b61074760048036038101906107429190613c66565b611e1b565b005b5f80610753611f96565b61075b61201d565b61076361203f565b61076b612080565b915091506107776124c4565b9091565b600760149054906101000a900464ffffffffff1681565b5f6201518060055f9054906101000a900463ffffffff1663ffffffff166004546107bc9190613cd1565b6107c69190613cd1565b905090565b6107d3611f96565b80600560046101000a81548160ff0219169083151502179055507f39732530a44231c7f00ba9402ecc5f859c4912a71afb923caded0ccce96d74a28160405161081c91906137fd565b60405180910390a150565b5f61083061203f565b61083861201d565b5f610842836124de565b905060011515816004015f9054906101000a900460ff161515148061087c5750600115158160040160019054906101000a900460ff161515145b1561088a575f91505061090c565b610893816125b7565b6108a0575f91505061090c565b60018160040160016101000a81548160ff021916908315150217905550806002015460045f8282546108d29190613d12565b92505081905550827f84680d0e3e8f2aa76b34b04e5330100f945bb0720d3dec815a8964e9cf8f349260405160405180910390a260019150505b6109146124c4565b919050565b5f610922611f96565b61092a61201d565b61093261203f565b61093b826125d0565b90506109456124c4565b919050565b5f61095361203f565b61095b61201d565b5f610965836124de565b9050806001015f9054906101000a900473ffffffffffffffffffffffffffffffffffffffff1673ffffffffffffffffffffffffffffffffffffffff163373ffffffffffffffffffffffffffffffffffffffff16146109ef576040517ffe30ec2200000000000000000000000000000000000000000000000000000000815260040160405180910390fd5b6109f98184612974565b915050610a046124c4565b919050565b610a11611f96565b610a19612b0d565b565b5f610a2461203f565b610a2c61201d565b5f610a36836124de565b9050805f015f9054906101000a900473ffffffffffffffffffffffffffffffffffffffff1673ffffffffffffffffffffffffffffffffffffffff163373ffffffffffffffffffffffffffffffffffffffff1614610abf576040517fa7f4fe3000000000000000000000000000000000000000000000000000000000815260040160405180910390fd5b60011515816004015f9054906101000a900460ff16151503610b0d576040517ff1c47dcd00000000000000000000000000000000000000000000000000000000815260040160405180910390fd5b5f4290508160010160199054906101000a900464ffffffffff1664ffffffffff168164ffffffffff161015610b6257808260010160196101000a81548164ffffffffff021916908364ffffffffff1602179055505b5f610b6c85611ccb565b90508260030160109054906101000a90046fffffffffffffffffffffffffffffffff166fffffffffffffffffffffffffffffffff16811015610bda576040517f4d377f8900000000000000000000000000000000000000000000000000000000815260040160405180910390fd5b5f836003015f9054906101000a90046fffffffffffffffffffffffffffffffff166fffffffffffffffffffffffffffffffff169050818111610c1c575f610c29565b8181610c289190613d12565b5b94508360040160019054906101000a900460ff16610c7b5760018460040160016101000a81548160ff021916908315150217905550836002015460045f828254610c739190613d12565b925050819055505b6001846004015f6101000a81548160ff02191690831515021790555081846003015f6101000a8154816fffffffffffffffffffffffffffffffff02191690836fffffffffffffffffffffffffffffffff1602179055505f8514610dc057610ce185612b6d565b610d4e845f015f9054906101000a900473ffffffffffffffffffffffffffffffffffffffff16867f000000000000000000000000000000000000000000000000000000000000000073ffffffffffffffffffffffffffffffffffffffff16612e839092919063ffffffff16565b835f015f9054906101000a900473ffffffffffffffffffffffffffffffffffffffff1673ffffffffffffffffffffffffffffffffffffffff16867f9a9bc2776d4d4b19a0bd140b1bddb819c90c2aaa1d16045873d36275066a4e8687604051610db7919061371c565b60405180910390a35b857f0ee89dfca9d286d564627f5efc4df847b8eecc5f7d4d9231bde70ff5158146a960405160405180910390a250505050610df96124c4565b919050565b60045481565b60075f9054906101000a900473ffffffffffffffffffffffffffffffffffffffff1681565b60058054906101000a900473ffffffffffffffffffffffffffffffffffffffff1681565b5f805f9054906101000a900460ff16905090565b60025481565b6003602052805f5260405f205f91509050805f015f9054906101000a900473ffffffffffffffffffffffffffffffffffffffff1690806001015f9054906101000a900473ffffffffffffffffffffffffffffffffffffffff16908060010160149054906101000a900464ffffffffff16908060010160199054906101000a900464ffffffffff1690806002015490806003015f9054906101000a90046fffffffffffffffffffffffffffffffff16908060030160109054906101000a90046fffffffffffffffffffffffffffffffff1690806004015f9054906101000a900460ff16908060040160019054906101000a900460ff16905089565b5f610f6a61203f565b5f73ffffffffffffffffffffffffffffffffffffffff168573ffffffffffffffffffffffffffffffffffffffff1603610fcf576040517f1b6925ad00000000000000000000000000000000000000000000000000000000815260040160405180910390fd5b5f8403611008576040517fe658acf400000000000000000000000000000000000000000000000000000000815260040160405180910390fd5b8264ffffffffff168264ffffffffff161161104f576040517f80c8be6c00000000000000000000000000000000000000000000000000000000815260040160405180910390fd5b60025f815461105d90613d45565b91905081905590506040518061012001604052803373ffffffffffffffffffffffffffffffffffffffff1681526020018673ffffffffffffffffffffffffffffffffffffffff1681526020018464ffffffffff1681526020018364ffffffffff1681526020018581526020015f6fffffffffffffffffffffffffffffffff1681526020015f6fffffffffffffffffffffffffffffffff1681526020015f151581526020015f151581525060035f8381526020019081526020015f205f820151815f015f6101000a81548173ffffffffffffffffffffffffffffffffffffffff021916908373ffffffffffffffffffffffffffffffffffffffff1602179055506020820151816001015f6101000a81548173ffffffffffffffffffffffffffffffffffffffff021916908373ffffffffffffffffffffffffffffffffffffffff16021790555060408201518160010160146101000a81548164ffffffffff021916908364ffffffffff16021790555060608201518160010160196101000a81548164ffffffffff021916908364ffffffffff1602179055506080820151816002015560a0820151816003015f6101000a8154816fffffffffffffffffffffffffffffffff02191690836fffffffffffffffffffffffffffffffff16021790555060c08201518160030160106101000a8154816fffffffffffffffffffffffffffffffff02191690836fffffffffffffffffffffffffffffffff16021790555060e0820151816004015f6101000a81548160ff0219169083151502179055506101008201518160040160016101000a81548160ff0219169083151502179055509050508360045f8282546112cf9190613d8c565b925050819055508473ffffffffffffffffffffffffffffffffffffffff163373ffffffffffffffffffffffffffffffffffffffff16827f3eb739136cdb20517efbfe1be5ce052d2ce1921c65dfa1e23ac76a7b99a2303f87878760405161133893929190613dbf565b60405180910390a4949350505050565b611350611f96565b6113595f612ed6565b565b5f611364612f06565b90508073ffffffffffffffffffffffffffffffffffffffff16611385611a64565b73ffffffffffffffffffffffffffffffffffffffff16146113dd57806040517f118cdaa70000000000000000000000000000000000000000000000000000000081526004016113d49190613855565b60405180910390fd5b6113e681612ed6565b50565b5f805f6113f461203f565b6113fc61201d565b611404611ac4565b925061140e610792565b9150818310156114325782826114249190613d12565b61142d90613df4565b61143f565b818361143e9190613d12565b5b90507fc53a3bf65b7621db171f4ae9e342efab934696c1470b621a780647c19b04a1e3838383604051611474939291906139f3565b60405180910390a15f600560049054906101000a900460ff1680156114e557505f73ffffffffffffffffffffffffffffffffffffffff1660058054906101000a900473ffffffffffffffffffffffffffffffffffffffff1673ffffffffffffffffffffffffffffffffffffffff1614155b801561153e57505f73ffffffffffffffffffffffffffffffffffffffff1660065f9054906101000a900473ffffffffffffffffffffffffffffffffffffffff1673ffffffffffffffffffffffffffffffffffffffff1614155b905080158061154e57505f600454145b156115595750611736565b5f61156384612f0d565b90505f8084121561157d578361157890613df4565b61157f565b835b905081811161159057505050611736565b600760199054906101000a900463ffffffff1663ffffffff16600760149054906101000a900464ffffffffff1664ffffffffff166115ce9190613d8c565b421015611607576040517f2de7aa2c00000000000000000000000000000000000000000000000000000000815260040160405180910390fd5b42600760146101000a81548164ffffffffff021916908364ffffffffff1602179055505f8413156116415761163b816125d0565b50611732565b5f60065f9054906101000a900473ffffffffffffffffffffffffffffffffffffffff1673ffffffffffffffffffffffffffffffffffffffff166370a08231306040518263ffffffff1660e01b815260040161169c9190613855565b602060405180830381865afa1580156116b7573d5f803e3d5ffd5b505050506040513d601f19601f820116820180604052508101906116db9190613e4e565b90505f8111156116f4576116ed612080565b5050611730565b7ff37ad593329a1ad30dd3d532a25caead089e27547f3f4dda1f1af5dffdf58e5787878760405161172793929190613ed3565b60405180910390a15b505b5050505b61173e6124c4565b909192565b61174b611f96565b6107d08161ffff16111561178b576040517fa83ec27900000000000000000000000000000000000000000000000000000000815260040160405180910390fd5b80600660146101000a81548161ffff021916908361ffff1602179055507fd721ae59bc99168faa6146ac5fd646fd127e2194f4f45c7727891dc7a25ca2e1816040516117d79190613b82565b60405180910390a150565b6117ea611f96565b6117f2612f56565b565b7f000000000000000000000000000000000000000000000000000000000000000081565b5f8060019054906101000a900473ffffffffffffffffffffffffffffffffffffffff16905090565b61184861203f565b61185061201d565b5f61185a836124de565b9050805f015f9054906101000a900473ffffffffffffffffffffffffffffffffffffffff1673ffffffffffffffffffffffffffffffffffffffff163373ffffffffffffffffffffffffffffffffffffffff16146118e3576040517f1338c5e000000000000000000000000000000000000000000000000000000000815260040160405180910390fd5b6118ef81843385612fb7565b506118f86124c4565b5050565b600760199054906101000a900463ffffffff1681565b60055f9054906101000a900463ffffffff1681565b60095f9054906101000a900461ffff1681565b60065f9054906101000a900473ffffffffffffffffffffffffffffffffffffffff1681565b600560049054906101000a900460ff1681565b600660149054906101000a900461ffff1681565b5f61198f61203f565b61199761201d565b5f6119a1836124de565b90506119ad8184612974565b9150506119b86124c4565b919050565b5f806119c8836124de565b90505f6119d484611ccb565b90508160030160109054906101000a90046fffffffffffffffffffffffffffffffff166fffffffffffffffffffffffffffffffff16811115611a53578160030160109054906101000a90046fffffffffffffffffffffffffffffffff166fffffffffffffffffffffffffffffffff1681611a4e9190613d12565b611a55565b5f5b92505050919050565b60085481565b5f60015f9054906101000a900473ffffffffffffffffffffffffffffffffffffffff16905090565b611a94611f96565b611abf82828573ffffffffffffffffffffffffffffffffffffffff16612e839092919063ffffffff16565b505050565b5f7f000000000000000000000000000000000000000000000000000000000000000073ffffffffffffffffffffffffffffffffffffffff166370a08231306040518263ffffffff1660e01b8152600401611b1e9190613855565b602060405180830381865afa158015611b39573d5f803e3d5ffd5b505050506040513d601f19601f82011682018060405250810190611b5d9190613e4e565b905090565b611b6a61203f565b611b7261201d565b5f611b7c846124de565b9050805f015f9054906101000a900473ffffffffffffffffffffffffffffffffffffffff1673ffffffffffffffffffffffffffffffffffffffff168373ffffffffffffffffffffffffffffffffffffffff1614611c05576040517f7d545b7900000000000000000000000000000000000000000000000000000000815260040160405180910390fd5b611c1181853385612fb7565b50611c1a6124c4565b505050565b611c27611f96565b8060015f6101000a81548173ffffffffffffffffffffffffffffffffffffffff021916908373ffffffffffffffffffffffffffffffffffffffff1602179055508073ffffffffffffffffffffffffffffffffffffffff16611c86611818565b73ffffffffffffffffffffffffffffffffffffffff167f38d16b8cac22d99fc7c124b9cd0de2d3fa1faef420bfe791d8c362d765e2270060405160405180910390a350565b5f80611cd6836124de565b90505f4290508160010160149054906101000a900464ffffffffff1664ffffffffff168111611d09575f92505050611e16565b5f611d30828460010160199054906101000a900464ffffffffff1664ffffffffff16613225565b90505f8360020154846003015f9054906101000a90046fffffffffffffffffffffffffffffffff166fffffffffffffffffffffffffffffffff16611d749190613f48565b8460010160149054906101000a900464ffffffffff1664ffffffffff16611d9b9190613d8c565b9050611da78282613225565b91508360010160149054906101000a900464ffffffffff1664ffffffffff168211611dd8575f945050505050611e16565b8360010160149054906101000a900464ffffffffff1664ffffffffff1682611e009190613d12565b8460020154611e0f9190613cd1565b9450505050505b919050565b611e23611f96565b816005806101000a81548173ffffffffffffffffffffffffffffffffffffffff021916908373ffffffffffffffffffffffffffffffffffffffff1602179055508060065f6101000a81548173ffffffffffffffffffffffffffffffffffffffff021916908373ffffffffffffffffffffffffffffffffffffffff160217905550611f0e827fffffffffffffffffffffffffffffffffffffffffffffffffffffffffffffffff7f000000000000000000000000000000000000000000000000000000000000000073ffffffffffffffffffffffffffffffffffffffff1661323d9092919063ffffffff16565b611f59827fffffffffffffffffffffffffffffffffffffffffffffffffffffffffffffffff8373ffffffffffffffffffffffffffffffffffffffff1661323d9092919063ffffffff16565b7f94d2d38c4c8f013dbb00e930b70901b71a94dea1dfc8baa7fdccd082a683f6e28282604051611f8a929190613f78565b60405180910390a15050565b611f9e612f06565b73ffffffffffffffffffffffffffffffffffffffff16611fbc611818565b73ffffffffffffffffffffffffffffffffffffffff161461201b57611fdf612f06565b6040517f118cdaa70000000000000000000000000000000000000000000000000000000081526004016120129190613855565b60405180910390fd5b565b6120256132ef565b6002612037612032613330565b613359565b5f0181905550565b612047610e4d565b1561207e576040517fd93c066500000000000000000000000000000000000000000000000000000000815260040160405180910390fd5b565b5f80600560049054906101000a900460ff166120c8576040517f67eac08c00000000000000000000000000000000000000000000000000000000815260040160405180910390fd5b60065f9054906101000a900473ffffffffffffffffffffffffffffffffffffffff1673ffffffffffffffffffffffffffffffffffffffff166370a08231306040518263ffffffff1660e01b81526004016121229190613855565b602060405180830381865afa15801561213d573d5f803e3d5ffd5b505050506040513d601f19601f820116820180604052508101906121619190613e4e565b90505f810361219c576040517faa4b94c100000000000000000000000000000000000000000000000000000000815260040160405180910390fd5b5f7f000000000000000000000000000000000000000000000000000000000000000073ffffffffffffffffffffffffffffffffffffffff166370a08231306040518263ffffffff1660e01b81526004016121f69190613855565b602060405180830381865afa158015612211573d5f803e3d5ffd5b505050506040513d601f19601f820116820180604052508101906122359190613e4e565b90505f82905060058054906101000a900473ffffffffffffffffffffffffffffffffffffffff1673ffffffffffffffffffffffffffffffffffffffff1663ba0876528430306040518463ffffffff1660e01b815260040161229893929190613f9f565b6020604051808303815f875af11580156122b4573d5f803e3d5ffd5b505050506040513d601f19601f820116820180604052508101906122d89190613e4e565b93505f7f000000000000000000000000000000000000000000000000000000000000000073ffffffffffffffffffffffffffffffffffffffff166370a08231306040518263ffffffff1660e01b81526004016123349190613855565b602060405180830381865afa15801561234f573d5f803e3d5ffd5b505050506040513d601f19601f820116820180604052508101906123739190613e4e565b90505f60065f9054906101000a900473ffffffffffffffffffffffffffffffffffffffff1673ffffffffffffffffffffffffffffffffffffffff166370a08231306040518263ffffffff1660e01b81526004016123d09190613855565b602060405180830381865afa1580156123eb573d5f803e3d5ffd5b505050506040513d601f19601f8201168201806040525081019061240f9190613e4e565b905083821161244a576040517f45b8bbc100000000000000000000000000000000000000000000000000000000815260040160405180910390fd5b828110612483576040517f45b8bbc100000000000000000000000000000000000000000000000000000000815260040160405180910390fd5b7fec2742143510c92e62b7f208edd8ca7446e3c22eaa4c7f9d09f991ec7c93155385876040516124b49291906136bd565b60405180910390a1505050509091565b60016124d66124d1613330565b613359565b5f0181905550565b5f808203612518576040517ffc7c267f00000000000000000000000000000000000000000000000000000000815260040160405180910390fd5b60035f8381526020019081526020015f2090505f73ffffffffffffffffffffffffffffffffffffffff16815f015f9054906101000a900473ffffffffffffffffffffffffffffffffffffffff1673ffffffffffffffffffffffffffffffffffffffff16036125b2576040517ffc7c267f00000000000000000000000000000000000000000000000000000000815260040160405180910390fd5b919050565b5f806125c283613362565b905080421015915050919050565b5f600560049054906101000a900460ff16612617576040517f67eac08c00000000000000000000000000000000000000000000000000000000815260040160405180910390fd5b5f8203612650576040517faa4b94c100000000000000000000000000000000000000000000000000000000815260040160405180910390fd5b5f7f000000000000000000000000000000000000000000000000000000000000000073ffffffffffffffffffffffffffffffffffffffff166370a08231306040518263ffffffff1660e01b81526004016126aa9190613855565b602060405180830381865afa1580156126c5573d5f803e3d5ffd5b505050506040513d601f19601f820116820180604052508101906126e99190613e4e565b905082811015612725576040517fb8a6b3fe00000000000000000000000000000000000000000000000000000000815260040160405180910390fd5b5f60065f9054906101000a900473ffffffffffffffffffffffffffffffffffffffff1673ffffffffffffffffffffffffffffffffffffffff166370a08231306040518263ffffffff1660e01b81526004016127809190613855565b602060405180830381865afa15801561279b573d5f803e3d5ffd5b505050506040513d601f19601f820116820180604052508101906127bf9190613e4e565b905060058054906101000a900473ffffffffffffffffffffffffffffffffffffffff1673ffffffffffffffffffffffffffffffffffffffff16636e553f6585306040518363ffffffff1660e01b815260040161281c929190613fd4565b6020604051808303815f875af1158015612838573d5f803e3d5ffd5b505050506040513d601f19601f8201168201806040525081019061285c9190613e4e565b92505f60065f9054906101000a900473ffffffffffffffffffffffffffffffffffffffff1673ffffffffffffffffffffffffffffffffffffffff166370a08231306040518263ffffffff1660e01b81526004016128b99190613855565b602060405180830381865afa1580156128d4573d5f803e3d5ffd5b505050506040513d601f19601f820116820180604052508101906128f89190613e4e565b9050818111612933576040517f45b8bbc100000000000000000000000000000000000000000000000000000000815260040160405180910390fd5b7fa248d81b377afe8736fe397f5a9f8f0d7c581e67ff6ae4037df29a672a92133b85856040516129649291906136bd565b60405180910390a1505050919050565b5f61297e826119bd565b90505f81036129b9576040517f2783686000000000000000000000000000000000000000000000000000000000815260040160405180910390fd5b808360030160108282829054906101000a90046fffffffffffffffffffffffffffffffff166129e89190613ffb565b92506101000a8154816fffffffffffffffffffffffffffffffff02191690836fffffffffffffffffffffffffffffffff160217905550612a2781612b6d565b612a95836001015f9054906101000a900473ffffffffffffffffffffffffffffffffffffffff16827f000000000000000000000000000000000000000000000000000000000000000073ffffffffffffffffffffffffffffffffffffffff16612e839092919063ffffffff16565b826001015f9054906101000a900473ffffffffffffffffffffffffffffffffffffffff1673ffffffffffffffffffffffffffffffffffffffff16827fae8194793eb0586860ad9ca74669746e16d4383642d338c9539501787c5ae8d283604051612aff919061371c565b60405180910390a392915050565b612b156133fc565b5f805f6101000a81548160ff0219169083151502179055507f5db9ee0a495bf2e6ff9c91a7834c1ba4fdd244a5e8aa4e537bd38aeae4b073aa612b56612f06565b604051612b639190613855565b60405180910390a1565b5f810315612e80575f7f000000000000000000000000000000000000000000000000000000000000000073ffffffffffffffffffffffffffffffffffffffff166370a08231306040518263ffffffff1660e01b8152600401612bcf9190613855565b602060405180830381865afa158015612bea573d5f803e3d5ffd5b505050506040513d601f19601f82011682018060405250810190612c0e9190613e4e565b9050818110612c1d5750612e80565b5f600560049054906101000a900460ff168015612c8657505f73ffffffffffffffffffffffffffffffffffffffff1660058054906101000a900473ffffffffffffffffffffffffffffffffffffffff1673ffffffffffffffffffffffffffffffffffffffff1614155b8015612cdf57505f73ffffffffffffffffffffffffffffffffffffffff1660065f9054906101000a900473ffffffffffffffffffffffffffffffffffffffff1673ffffffffffffffffffffffffffffffffffffffff1614155b90508015612e41575f60065f9054906101000a900473ffffffffffffffffffffffffffffffffffffffff1673ffffffffffffffffffffffffffffffffffffffff166370a08231306040518263ffffffff1660e01b8152600401612d429190613855565b602060405180830381865afa158015612d5d573d5f803e3d5ffd5b505050506040513d601f19601f82011682018060405250810190612d819190613e4e565b90505f811115612e3f57612d93612080565b50507f000000000000000000000000000000000000000000000000000000000000000073ffffffffffffffffffffffffffffffffffffffff166370a08231306040518263ffffffff1660e01b8152600401612dee9190613855565b602060405180830381865afa158015612e09573d5f803e3d5ffd5b505050506040513d601f19601f82011682018060405250810190612e2d9190613e4e565b9250838310612e3e57505050612e80565b5b505b82826040517f080d62bd000000000000000000000000000000000000000000000000000000008152600401612e779291906136bd565b60405180910390fd5b50565b612e90838383600161343c565b612ed157826040517f5274afe7000000000000000000000000000000000000000000000000000000008152600401612ec89190613855565b60405180910390fd5b505050565b60015f6101000a81549073ffffffffffffffffffffffffffffffffffffffff0219169055612f038161349e565b50565b5f33905090565b5f8060095f9054906101000a900461ffff1661ffff1661271084612f319190613f48565b612f3b9190613cd1565b9050600854811015612f4d5760085490505b80915050919050565b612f5e61203f565b60015f806101000a81548160ff0219169083151502179055507f62e78cea01bee320cd4e420270b5ea74000d11b0c9f74754ebdbfc544b05a258612fa0612f06565b604051612fad9190613855565b60405180910390a1565b5f8103612ff0576040517faa4b94c100000000000000000000000000000000000000000000000000000000815260040160405180910390fd5b836003015f9054906101000a90046fffffffffffffffffffffffffffffffff166fffffffffffffffffffffffffffffffff61302b919061403e565b6fffffffffffffffffffffffffffffffff16811115613076576040517f2aecfb8500000000000000000000000000000000000000000000000000000000815260040160405180910390fd5b6130c38230837f000000000000000000000000000000000000000000000000000000000000000073ffffffffffffffffffffffffffffffffffffffff16613561909392919063ffffffff16565b80846003015f8282829054906101000a90046fffffffffffffffffffffffffffffffff166130f19190613ffb565b92506101000a8154816fffffffffffffffffffffffffffffffff02191690836fffffffffffffffffffffffffffffffff1602179055508360040160019054906101000a900460ff1680156131535750836004015f9054906101000a900460ff16155b80156131655750613163846125b7565b155b156131d0575f8460040160016101000a81548160ff021916908315150217905550836002015460045f82825461319b9190613d8c565b92505081905550827f8ec09d2b351dcf1c8d42bb47ca67d36ee311436181618890d077a9b5b839817c60405160405180910390a25b8173ffffffffffffffffffffffffffffffffffffffff16837fd39ce8025a122a443ca5b9adaa565e30290547b9c644214bf8c9a21893edc39383604051613217919061371c565b60405180910390a350505050565b5f8183106132335781613235565b825b905092915050565b6132498383835f6135b6565b6132ea5761325a83835f60016135b6565b61329b57826040517f5274afe70000000000000000000000000000000000000000000000000000000081526004016132929190613855565b60405180910390fd5b6132a883838360016135b6565b6132e957826040517f5274afe70000000000000000000000000000000000000000000000000000000081526004016132e09190613855565b60405180910390fd5b5b505050565b6132f7613618565b1561332e576040517f3ee5aeb500000000000000000000000000000000000000000000000000000000815260040160405180910390fd5b565b5f7f9b779b17422d0df92223018b32b4d1fa46e071723d6817e2486d003becc55f005f1b905090565b5f819050919050565b5f808260020154836003015f9054906101000a90046fffffffffffffffffffffffffffffffff166fffffffffffffffffffffffffffffffff166133a59190613f48565b8360010160149054906101000a900464ffffffffff1664ffffffffff166133cc9190613d8c565b90506133f48360010160199054906101000a900464ffffffffff1664ffffffffff1682613225565b915050919050565b613404610e4d565b61343a576040517f8dfc202b00000000000000000000000000000000000000000000000000000000815260040160405180910390fd5b565b5f8063a9059cbb60e01b9050604051815f525f1960601c86166004528460245260205f60445f808b5af1925060015f51148316613490578383151615613484573d5f823e3d81fd5b5f873b113d1516831692505b806040525050949350505050565b5f8060019054906101000a900473ffffffffffffffffffffffffffffffffffffffff169050815f60016101000a81548173ffffffffffffffffffffffffffffffffffffffff021916908373ffffffffffffffffffffffffffffffffffffffff1602179055508173ffffffffffffffffffffffffffffffffffffffff168173ffffffffffffffffffffffffffffffffffffffff167f8be0079c531659141344cd1fd0a4f28419497f9722a3daafe3b4186f6b6457e060405160405180910390a35050565b61356f848484846001613634565b6135b057836040517f5274afe70000000000000000000000000000000000000000000000000000000081526004016135a79190613855565b60405180910390fd5b50505050565b5f8063095ea7b360e01b9050604051815f525f1960601c86166004528460245260205f60445f808b5af1925060015f5114831661360a5783831516156135fe573d5f823e3d81fd5b5f873b113d1516831692505b806040525050949350505050565b5f600261362b613626613330565b613359565b5f015414905090565b5f806323b872dd60e01b9050604051815f525f1960601c87166004525f1960601c86166024528460445260205f60645f808c5af1925060015f51148316613692578383151615613686573d5f823e3d81fd5b5f883b113d1516831692505b806040525f606052505095945050505050565b5f819050919050565b6136b7816136a5565b82525050565b5f6040820190506136d05f8301856136ae565b6136dd60208301846136ae565b9392505050565b5f64ffffffffff82169050919050565b6136fd816136e4565b82525050565b5f6020820190506137165f8301846136f4565b92915050565b5f60208201905061372f5f8301846136ae565b92915050565b5f80fd5b5f8115159050919050565b61374d81613739565b8114613757575f80fd5b50565b5f8135905061376881613744565b92915050565b5f6020828403121561378357613782613735565b5b5f6137908482850161375a565b91505092915050565b6137a2816136a5565b81146137ac575f80fd5b50565b5f813590506137bd81613799565b92915050565b5f602082840312156137d8576137d7613735565b5b5f6137e5848285016137af565b91505092915050565b6137f781613739565b82525050565b5f6020820190506138105f8301846137ee565b92915050565b5f73ffffffffffffffffffffffffffffffffffffffff82169050919050565b5f61383f82613816565b9050919050565b61384f81613835565b82525050565b5f6020820190506138685f830184613846565b92915050565b5f6fffffffffffffffffffffffffffffffff82169050919050565b6138928161386e565b82525050565b5f610120820190506138ac5f83018c613846565b6138b9602083018b613846565b6138c6604083018a6136f4565b6138d360608301896136f4565b6138e060808301886136ae565b6138ed60a0830187613889565b6138fa60c0830186613889565b61390760e08301856137ee565b6139156101008301846137ee565b9a9950505050505050505050565b61392c81613835565b8114613936575f80fd5b50565b5f8135905061394781613923565b92915050565b613956816136e4565b8114613960575f80fd5b50565b5f813590506139718161394d565b92915050565b5f805f806080858703121561398f5761398e613735565b5b5f61399c87828801613939565b94505060206139ad878288016137af565b93505060406139be87828801613963565b92505060606139cf87828801613963565b91505092959194509250565b5f819050919050565b6139ed816139db565b82525050565b5f606082019050613a065f8301866136ae565b613a1360208301856136ae565b613a2060408301846139e4565b949350505050565b5f61ffff82169050919050565b613a3e81613a28565b8114613a48575f80fd5b50565b5f81359050613a5981613a35565b92915050565b5f60208284031215613a7457613a73613735565b5b5f613a8184828501613a4b565b91505092915050565b5f819050919050565b5f613aad613aa8613aa384613816565b613a8a565b613816565b9050919050565b5f613abe82613a93565b9050919050565b5f613acf82613ab4565b9050919050565b613adf81613ac5565b82525050565b5f602082019050613af85f830184613ad6565b92915050565b5f8060408385031215613b1457613b13613735565b5b5f613b21858286016137af565b9250506020613b32858286016137af565b9150509250929050565b5f63ffffffff82169050919050565b613b5481613b3c565b82525050565b5f602082019050613b6d5f830184613b4b565b92915050565b613b7c81613a28565b82525050565b5f602082019050613b955f830184613b73565b92915050565b5f805f60608486031215613bb257613bb1613735565b5b5f613bbf86828701613939565b9350506020613bd086828701613939565b9250506040613be1868287016137af565b9150509250925092565b5f805f60608486031215613c0257613c01613735565b5b5f613c0f868287016137af565b9350506020613c2086828701613939565b9250506040613c31868287016137af565b9150509250925092565b5f60208284031215613c5057613c4f613735565b5b5f613c5d84828501613939565b91505092915050565b5f8060408385031215613c7c57613c7b613735565b5b5f613c8985828601613939565b9250506020613c9a85828601613939565b9150509250929050565b7f4e487b71000000000000000000000000000000000000000000000000000000005f52601160045260245ffd5b5f613cdb826136a5565b9150613ce6836136a5565b9250828202613cf4816136a5565b91508282048414831517613d0b57613d0a613ca4565b5b5092915050565b5f613d1c826136a5565b9150613d27836136a5565b9250828203905081811115613d3f57613d3e613ca4565b5b92915050565b5f613d4f826136a5565b91507fffffffffffffffffffffffffffffffffffffffffffffffffffffffffffffffff8203613d8157613d80613ca4565b5b600182019050919050565b5f613d96826136a5565b9150613da1836136a5565b9250828201905080821115613db957613db8613ca4565b5b92915050565b5f606082019050613dd25f8301866136ae565b613ddf60208301856136f4565b613dec60408301846136f4565b949350505050565b5f613dfe826139db565b91507f80000000000000000000000000000000000000000000000000000000000000008203613e3057613e2f613ca4565b5b815f039050919050565b5f81519050613e4881613799565b92915050565b5f60208284031215613e6357613e62613735565b5b5f613e7084828501613e3a565b91505092915050565b5f82825260208201905092915050565b7f6e6f207573796320746f2072656465656d0000000000000000000000000000005f82015250565b5f613ebd601183613e79565b9150613ec882613e89565b602082019050919050565b5f608082019050613ee65f8301866136ae565b613ef360208301856136ae565b613f0060408301846139e4565b8181036060830152613f1181613eb1565b9050949350505050565b7f4e487b71000000000000000000000000000000000000000000000000000000005f52601260045260245ffd5b5f613f52826136a5565b9150613f5d836136a5565b925082613f6d57613f6c613f1b565b5b828204905092915050565b5f604082019050613f8b5f830185613846565b613f986020830184613846565b9392505050565b5f606082019050613fb25f8301866136ae565b613fbf6020830185613846565b613fcc6040830184613846565b949350505050565b5f604082019050613fe75f8301856136ae565b613ff46020830184613846565b9392505050565b5f6140058261386e565b91506140108361386e565b925082820190506fffffffffffffffffffffffffffffffff81111561403857614037613ca4565b5b92915050565b5f6140488261386e565b91506140538361386e565b925082820390506fffffffffffffffffffffffffffffffff81111561407b5761407a613ca4565b5b9291505056fea26469706673582212206ff558a067fa0eb4d6a233ea7a38ff030716ba367c86307deef9a140b14f135764736f6c63430008180033","linkReferences":{}},"methodIdentifiers":{"USDC()":"89a30271","acceptOwnership()":"79ba5097","accrued(uint256)":"f52981f4","buffer()":"edaafe20","bufferDays()":"b8e3383a","bufferTarget()":"1135e604","cancel(uint256)":"40e58ee5","claim(uint256)":"379607f5","claimOnBehalf(uint256)":"d116ab51","claimable(uint256)":"d1d58b25","createStream(address,uint256,uint40,uint40)":"70a3d0b3","emergencyWithdraw(address,address,uint256)":"e63ea408","epsilonBps()":"ba7596de","feeRecipient()":"46904840","fund(uint256,uint256)":"a65e2cfd","fundFor(uint256,address,uint256)":"ef3b3afc","lastRebalance()":"106b9ca1","minEpsilon()":"d2845622","nextId()":"61b8ce8c","owner()":"8da5cb5b","pause()":"8456cb59","paused()":"5c975abb","pendingOwner()":"e30c3978","perfFeeBps()":"c2f7e23e","poke(uint256)":"32145f90","rebalance()":"7d7c2a1c","rebalanceCooldown()":"b3de272d","renounceOwnership()":"715018a6","setPerfFeeBps(uint16)":"830cb283","setYieldConfig(address,address)":"fcb7d732","setYieldEnabled(bool)":"135986b4","streams(uint256)":"64d60d91","teller()":"57edab4e","totalRate()":"42a66f68","transferOwnership(address)":"f2fde38b","unpause()":"3f4ba83a","usyc()":"c166beb6","yieldDeposit(uint256)":"330a649d","yieldEnabled()":"c2752e43","yieldRedeemAll()":"083c43a5"},"id":1}